{
  "contractName": "Payable",
  "abi": [
    {
      "inputs": [],
      "stateMutability": "payable",
      "type": "constructor"
    },
    {
      "inputs": [],
      "name": "owner",
      "outputs": [
        {
          "internalType": "address payable",
          "name": "",
          "type": "address"
        }
      ],
      "stateMutability": "view",
      "type": "function"
    },
    {
      "inputs": [],
      "name": "deposit",
      "outputs": [],
      "stateMutability": "payable",
      "type": "function"
    },
    {
      "inputs": [],
      "name": "getAmount",
      "outputs": [
        {
          "internalType": "uint256",
          "name": "",
          "type": "uint256"
        }
      ],
      "stateMutability": "view",
      "type": "function"
    },
    {
      "inputs": [],
      "name": "withdraw",
      "outputs": [],
      "stateMutability": "nonpayable",
      "type": "function"
    },
    {
      "inputs": [
        {
          "internalType": "address payable",
          "name": "_to",
          "type": "address"
        },
        {
          "internalType": "uint256",
          "name": "_amount",
          "type": "uint256"
        }
      ],
      "name": "transfer",
      "outputs": [],
      "stateMutability": "nonpayable",
      "type": "function"
    }
  ],
  "bytecode": "0x6080604052336000806101000a81548173ffffffffffffffffffffffffffffffffffffffff021916908373ffffffffffffffffffffffffffffffffffffffff16021790555061053b806100536000396000f3fe60806040526004361061004a5760003560e01c80633ccfd60b1461004f5780638da5cb5b14610066578063a9059cbb14610091578063d0e30db0146100ba578063d321fe29146100c4575b600080fd5b34801561005b57600080fd5b506100646100ef565b005b34801561007257600080fd5b5061007b6101c5565b60405161008891906102ea565b60405180910390f35b34801561009d57600080fd5b506100b860048036038101906100b3919061036c565b6101e9565b005b6100c261029a565b005b3480156100d057600080fd5b506100d961029c565b6040516100e691906103bb565b60405180910390f35b600047905060008060009054906101000a900473ffffffffffffffffffffffffffffffffffffffff1673ffffffffffffffffffffffffffffffffffffffff168260405161013b90610407565b60006040518083038185875af1925050503d8060008114610178576040519150601f19603f3d011682016040523d82523d6000602084013e61017d565b606091505b50509050806101c1576040517f08c379a00000000000000000000000000000000000000000000000000000000081526004016101b890610479565b60405180910390fd5b5050565b60008054906101000a900473ffffffffffffffffffffffffffffffffffffffff1681565b60008273ffffffffffffffffffffffffffffffffffffffff168260405161020f90610407565b60006040518083038185875af1925050503d806000811461024c576040519150601f19603f3d011682016040523d82523d6000602084013e610251565b606091505b5050905080610295576040517f08c379a000000000000000000000000000000000000000000000000000000000815260040161028c906104e5565b60405180910390fd5b505050565b565b6000804790508091505090565b600073ffffffffffffffffffffffffffffffffffffffff82169050919050565b60006102d4826102a9565b9050919050565b6102e4816102c9565b82525050565b60006020820190506102ff60008301846102db565b92915050565b600080fd5b610313816102c9565b811461031e57600080fd5b50565b6000813590506103308161030a565b92915050565b6000819050919050565b61034981610336565b811461035457600080fd5b50565b60008135905061036681610340565b92915050565b6000806040838503121561038357610382610305565b5b600061039185828601610321565b92505060206103a285828601610357565b9150509250929050565b6103b581610336565b82525050565b60006020820190506103d060008301846103ac565b92915050565b600081905092915050565b50565b60006103f16000836103d6565b91506103fc826103e1565b600082019050919050565b6000610412826103e4565b9150819050919050565b600082825260208201905092915050565b7f576974686472617720476167616c000000000000000000000000000000000000600082015250565b6000610463600e8361041c565b915061046e8261042d565b602082019050919050565b6000602082019050818103600083015261049281610456565b9050919050565b7f5472616e7366657220476167616c000000000000000000000000000000000000600082015250565b60006104cf600e8361041c565b91506104da82610499565b602082019050919050565b600060208201905081810360008301526104fe816104c2565b905091905056fea264697066735822122056f0aeac0cf09e3faed72ed9ad340507eb438dffaafcd00c50bd67b001fe578c64736f6c634300080d0033",
  "immutableReferences": {},
  "source": "//SPDX-License-Identifier:MIT\npragma solidity ^0.8.0;\n\n\n\ncontract Payable {\n    address payable public owner;\n\n    constructor() payable {\n        owner = payable(msg.sender);\n    }\n\n    function deposit() public payable{\n\n    }\n\n    function getAmount() public view returns (uint){\n        uint amount = address(this).balance;\n\n        return amount;\n    }\n\n    function withdraw() public {\n        uint amount = address(this).balance;\n\n        (bool succes,) = owner.call{value: amount}(\"\");\n        require(succes, \"Withdraw Gagal\");\n        \n\n    }\n    \n    function transfer(address payable _to, uint _amount) public {\n        (bool succes,) = _to.call{value: _amount}(\"\");\n        require(succes, \"Transfer Gagal\");\n\n    }\n}",
  "sourcePath": "/Users/ibobby/Desktop/Chromatica/contracts/Migrations.sol",
  "compiler": {
    "name": "solc",
    "version": "0.8.13+commit.abaa5c0e.Emscripten.clang"
  },
  "schemaVersion": "3.4.7",
  "updatedAt": "2022-04-15T16:26:18.869Z",
  "devdoc": {
    "kind": "dev",
    "methods": {},
    "version": 1
  },
  "userdoc": {
    "kind": "user",
    "methods": {},
    "version": 1
  }
}